{
  "contractName": "Candidate",
  "abi": [
    {
      "inputs": [
        {
          "internalType": "string",
          "name": "name",
          "type": "string"
        },
        {
          "internalType": "string",
          "name": "symbol",
          "type": "string"
        },
        {
          "internalType": "uint8",
          "name": "decimals",
          "type": "uint8"
        },
        {
          "internalType": "uint256",
          "name": "amount",
          "type": "uint256"
        }
      ],
      "stateMutability": "nonpayable",
      "type": "constructor"
    },
    {
      "anonymous": false,
      "inputs": [
        {
          "indexed": true,
          "internalType": "address",
          "name": "owner",
          "type": "address"
        },
        {
          "indexed": true,
          "internalType": "address",
          "name": "spender",
          "type": "address"
        },
        {
          "indexed": false,
          "internalType": "uint256",
          "name": "value",
          "type": "uint256"
        }
      ],
      "name": "Approval",
      "type": "event"
    },
    {
      "anonymous": false,
      "inputs": [
        {
          "indexed": true,
          "internalType": "address",
          "name": "previousOwner",
          "type": "address"
        },
        {
          "indexed": true,
          "internalType": "address",
          "name": "newOwner",
          "type": "address"
        }
      ],
      "name": "OwnershipTransferred",
      "type": "event"
    },
    {
      "anonymous": false,
      "inputs": [
        {
          "indexed": true,
          "internalType": "address",
          "name": "from",
          "type": "address"
        },
        {
          "indexed": true,
          "internalType": "address",
          "name": "to",
          "type": "address"
        },
        {
          "indexed": false,
          "internalType": "uint256",
          "name": "value",
          "type": "uint256"
        }
      ],
      "name": "Transfer",
      "type": "event"
    },
    {
      "inputs": [
        {
          "internalType": "address",
          "name": "owner",
          "type": "address"
        },
        {
          "internalType": "address",
          "name": "spender",
          "type": "address"
        }
      ],
      "name": "allowance",
      "outputs": [
        {
          "internalType": "uint256",
          "name": "",
          "type": "uint256"
        }
      ],
      "stateMutability": "view",
      "type": "function",
      "constant": true
    },
    {
      "inputs": [
        {
          "internalType": "address",
          "name": "spender",
          "type": "address"
        },
        {
          "internalType": "uint256",
          "name": "amount",
          "type": "uint256"
        }
      ],
      "name": "approve",
      "outputs": [
        {
          "internalType": "bool",
          "name": "",
          "type": "bool"
        }
      ],
      "stateMutability": "nonpayable",
      "type": "function"
    },
    {
      "inputs": [
        {
          "internalType": "address",
          "name": "account",
          "type": "address"
        }
      ],
      "name": "balanceOf",
      "outputs": [
        {
          "internalType": "uint256",
          "name": "",
          "type": "uint256"
        }
      ],
      "stateMutability": "view",
      "type": "function",
      "constant": true
    },
    {
      "inputs": [],
      "name": "decimals",
      "outputs": [
        {
          "internalType": "uint8",
          "name": "",
          "type": "uint8"
        }
      ],
      "stateMutability": "view",
      "type": "function",
      "constant": true
    },
    {
      "inputs": [
        {
          "internalType": "address",
          "name": "spender",
          "type": "address"
        },
        {
          "internalType": "uint256",
          "name": "subtractedValue",
          "type": "uint256"
        }
      ],
      "name": "decreaseAllowance",
      "outputs": [
        {
          "internalType": "bool",
          "name": "",
          "type": "bool"
        }
      ],
      "stateMutability": "nonpayable",
      "type": "function"
    },
    {
      "inputs": [
        {
          "internalType": "address",
          "name": "spender",
          "type": "address"
        },
        {
          "internalType": "uint256",
          "name": "addedValue",
          "type": "uint256"
        }
      ],
      "name": "increaseAllowance",
      "outputs": [
        {
          "internalType": "bool",
          "name": "",
          "type": "bool"
        }
      ],
      "stateMutability": "nonpayable",
      "type": "function"
    },
    {
      "inputs": [],
      "name": "name",
      "outputs": [
        {
          "internalType": "string",
          "name": "",
          "type": "string"
        }
      ],
      "stateMutability": "view",
      "type": "function",
      "constant": true
    },
    {
      "inputs": [],
      "name": "owner",
      "outputs": [
        {
          "internalType": "address",
          "name": "",
          "type": "address"
        }
      ],
      "stateMutability": "view",
      "type": "function",
      "constant": true
    },
    {
      "inputs": [],
      "name": "releaseAgent",
      "outputs": [
        {
          "internalType": "address",
          "name": "",
          "type": "address"
        }
      ],
      "stateMutability": "view",
      "type": "function",
      "constant": true
    },
    {
      "inputs": [],
      "name": "released",
      "outputs": [
        {
          "internalType": "bool",
          "name": "",
          "type": "bool"
        }
      ],
      "stateMutability": "view",
      "type": "function",
      "constant": true
    },
    {
      "inputs": [],
      "name": "renounceOwnership",
      "outputs": [],
      "stateMutability": "nonpayable",
      "type": "function"
    },
    {
      "inputs": [],
      "name": "symbol",
      "outputs": [
        {
          "internalType": "string",
          "name": "",
          "type": "string"
        }
      ],
      "stateMutability": "view",
      "type": "function",
      "constant": true
    },
    {
      "inputs": [],
      "name": "totalSupply",
      "outputs": [
        {
          "internalType": "uint256",
          "name": "",
          "type": "uint256"
        }
      ],
      "stateMutability": "view",
      "type": "function",
      "constant": true
    },
    {
      "inputs": [
        {
          "internalType": "address",
          "name": "",
          "type": "address"
        }
      ],
      "name": "transferAgents",
      "outputs": [
        {
          "internalType": "bool",
          "name": "",
          "type": "bool"
        }
      ],
      "stateMutability": "view",
      "type": "function",
      "constant": true
    },
    {
      "inputs": [
        {
          "internalType": "address",
          "name": "newOwner",
          "type": "address"
        }
      ],
      "name": "transferOwnership",
      "outputs": [],
      "stateMutability": "nonpayable",
      "type": "function"
    },
    {
      "inputs": [],
      "name": "release",
      "outputs": [],
      "stateMutability": "nonpayable",
      "type": "function"
    },
    {
      "inputs": [
        {
          "internalType": "address",
          "name": "_to",
          "type": "address"
        },
        {
          "internalType": "uint256",
          "name": "_value",
          "type": "uint256"
        }
      ],
      "name": "transfer",
      "outputs": [
        {
          "internalType": "bool",
          "name": "success",
          "type": "bool"
        }
      ],
      "stateMutability": "nonpayable",
      "type": "function"
    },
    {
      "inputs": [
        {
          "internalType": "address",
          "name": "_from",
          "type": "address"
        },
        {
          "internalType": "address",
          "name": "_to",
          "type": "address"
        },
        {
          "internalType": "uint256",
          "name": "_value",
          "type": "uint256"
        }
      ],
      "name": "transferFrom",
      "outputs": [
        {
          "internalType": "bool",
          "name": "success",
          "type": "bool"
        }
      ],
      "stateMutability": "nonpayable",
      "type": "function"
    },
    {
      "inputs": [
        {
          "internalType": "uint256",
          "name": "_value",
          "type": "uint256"
        }
      ],
      "name": "burn",
      "outputs": [],
      "stateMutability": "nonpayable",
      "type": "function"
    },
    {
      "inputs": [
        {
          "internalType": "address",
          "name": "_from",
          "type": "address"
        },
        {
          "internalType": "uint256",
          "name": "_value",
          "type": "uint256"
        }
      ],
      "name": "burnFrom",
      "outputs": [],
      "stateMutability": "nonpayable",
      "type": "function"
    }
  ],
  "bytecode": "0x60806040526000600660146101000a81548160ff0219169083151502179055503480156200002c57600080fd5b5060405162002ab838038062002ab88339818101604052810190620000529190620006a9565b838362000074620000686200017b60201b60201c565b6200018360201b60201c565b81600490805190602001906200008c929190620003e3565b508060059080519060200190620000a5929190620003e3565b50505060008111620000ee576040517f08c379a0000000000000000000000000000000000000000000000000000000008152600401620000e590620007ba565b60405180910390fd5b60006200011b8360ff16600a6200010691906200095f565b836200024760201b62000ade1790919060201c565b905033600660006101000a81548173ffffffffffffffffffffffffffffffffffffffff021916908373ffffffffffffffffffffffffffffffffffffffff1602179055506200017033826200025f60201b60201c565b505050505062000b73565b600033905090565b60008060009054906101000a900473ffffffffffffffffffffffffffffffffffffffff169050816000806101000a81548173ffffffffffffffffffffffffffffffffffffffff021916908373ffffffffffffffffffffffffffffffffffffffff1602179055508173ffffffffffffffffffffffffffffffffffffffff168173ffffffffffffffffffffffffffffffffffffffff167f8be0079c531659141344cd1fd0a4f28419497f9722a3daafe3b4186f6b6457e060405160405180910390a35050565b60008183620002579190620009b0565b905092915050565b600073ffffffffffffffffffffffffffffffffffffffff168273ffffffffffffffffffffffffffffffffffffffff161415620002d2576040517f08c379a0000000000000000000000000000000000000000000000000000000008152600401620002c99062000a61565b60405180910390fd5b620002e660008383620003d960201b60201c565b8060036000828254620002fa919062000a83565b9250508190555080600160008473ffffffffffffffffffffffffffffffffffffffff1673ffffffffffffffffffffffffffffffffffffffff168152602001908152602001600020600082825462000352919062000a83565b925050819055508173ffffffffffffffffffffffffffffffffffffffff16600073ffffffffffffffffffffffffffffffffffffffff167fddf252ad1be2c89b69c2b068fc378daa952ba7f163c4a11628f55a4df523b3ef83604051620003b9919062000af1565b60405180910390a3620003d560008383620003de60201b60201c565b5050565b505050565b505050565b828054620003f19062000b3d565b90600052602060002090601f01602090048101928262000415576000855562000461565b82601f106200043057805160ff191683800117855562000461565b8280016001018555821562000461579182015b828111156200046057825182559160200191906001019062000443565b5b50905062000470919062000474565b5090565b5b808211156200048f57600081600090555060010162000475565b5090565b6000604051905090565b600080fd5b600080fd5b600080fd5b600080fd5b6000601f19601f8301169050919050565b7f4e487b7100000000000000000000000000000000000000000000000000000000600052604160045260246000fd5b620004fc82620004b1565b810181811067ffffffffffffffff821117156200051e576200051d620004c2565b5b80604052505050565b60006200053362000493565b9050620005418282620004f1565b919050565b600067ffffffffffffffff821115620005645762000563620004c2565b5b6200056f82620004b1565b9050602081019050919050565b60005b838110156200059c5780820151818401526020810190506200057f565b83811115620005ac576000848401525b50505050565b6000620005c9620005c38462000546565b62000527565b905082815260208101848484011115620005e857620005e7620004ac565b5b620005f58482856200057c565b509392505050565b600082601f830112620006155762000614620004a7565b5b815162000627848260208601620005b2565b91505092915050565b600060ff82169050919050565b620006488162000630565b81146200065457600080fd5b50565b60008151905062000668816200063d565b92915050565b6000819050919050565b62000683816200066e565b81146200068f57600080fd5b50565b600081519050620006a38162000678565b92915050565b60008060008060808587031215620006c657620006c56200049d565b5b600085015167ffffffffffffffff811115620006e757620006e6620004a2565b5b620006f587828801620005fd565b945050602085015167ffffffffffffffff811115620007195762000718620004a2565b5b6200072787828801620005fd565b93505060406200073a8782880162000657565b92505060606200074d8782880162000692565b91505092959194509250565b600082825260208201905092915050565b7f616d6f756e742068617320746f2062652067726561746572207468616e203000600082015250565b6000620007a2601f8362000759565b9150620007af826200076a565b602082019050919050565b60006020820190508181036000830152620007d58162000793565b9050919050565b7f4e487b7100000000000000000000000000000000000000000000000000000000600052601160045260246000fd5b60008160011c9050919050565b6000808291508390505b60018511156200086a57808604811115620008425762000841620007dc565b5b6001851615620008525780820291505b808102905062000862856200080b565b945062000822565b94509492505050565b60008262000885576001905062000958565b8162000895576000905062000958565b8160018114620008ae5760028114620008b957620008ef565b600191505062000958565b60ff841115620008ce57620008cd620007dc565b5b8360020a915084821115620008e857620008e7620007dc565b5b5062000958565b5060208310610133831016604e8410600b8410161715620009295782820a905083811115620009235762000922620007dc565b5b62000958565b62000938848484600162000818565b92509050818404811115620009525762000951620007dc565b5b81810290505b9392505050565b60006200096c826200066e565b915062000979836200066e565b9250620009a87fffffffffffffffffffffffffffffffffffffffffffffffffffffffffffffffff848462000873565b905092915050565b6000620009bd826200066e565b9150620009ca836200066e565b9250817fffffffffffffffffffffffffffffffffffffffffffffffffffffffffffffffff048311821515161562000a065762000a05620007dc565b5b828202905092915050565b7f45524332303a206d696e7420746f20746865207a65726f206164647265737300600082015250565b600062000a49601f8362000759565b915062000a568262000a11565b602082019050919050565b6000602082019050818103600083015262000a7c8162000a3a565b9050919050565b600062000a90826200066e565b915062000a9d836200066e565b9250827fffffffffffffffffffffffffffffffffffffffffffffffffffffffffffffffff0382111562000ad55762000ad4620007dc565b5b828201905092915050565b62000aeb816200066e565b82525050565b600060208201905062000b08600083018462000ae0565b92915050565b7f4e487b7100000000000000000000000000000000000000000000000000000000600052602260045260246000fd5b6000600282049050600182168062000b5657607f821691505b6020821081141562000b6d5762000b6c62000b0e565b5b50919050565b611f358062000b836000396000f3fe608060405234801561001057600080fd5b506004361061012c5760003560e01c8063867c2857116100ad578063a457c2d711610071578063a457c2d714610321578063a9059cbb14610351578063d1f276d314610381578063dd62ed3e1461039f578063f2fde38b146103cf5761012c565b8063867c28571461028d57806386d1a69f146102bd5780638da5cb5b146102c757806395d89b41146102e557806396132521146103035761012c565b806339509351116100f457806339509351146101eb57806342966c681461021b57806370a0823114610237578063715018a61461026757806379cc6790146102715761012c565b806306fdde0314610131578063095ea7b31461014f57806318160ddd1461017f57806323b872dd1461019d578063313ce567146101cd575b600080fd5b6101396103eb565b6040516101469190611430565b60405180910390f35b610169600480360381019061016491906114eb565b61047d565b6040516101769190611546565b60405180910390f35b61018761049b565b6040516101949190611570565b60405180910390f35b6101b760048036038101906101b2919061158b565b6104a5565b6040516101c49190611546565b60405180910390f35b6101d56104d6565b6040516101e291906115fa565b60405180910390f35b610205600480360381019061020091906114eb565b6104df565b6040516102129190611546565b60405180910390f35b61023560048036038101906102309190611615565b61058b565b005b610251600480360381019061024c9190611642565b610597565b60405161025e9190611570565b60405180910390f35b61026f6105e0565b005b61028b600480360381019061028691906114eb565b610668565b005b6102a760048036038101906102a29190611642565b610676565b6040516102b49190611546565b60405180910390f35b6102c5610696565b005b6102cf610751565b6040516102dc919061167e565b60405180910390f35b6102ed61077a565b6040516102fa9190611430565b60405180910390f35b61030b61080c565b6040516103189190611546565b60405180910390f35b61033b600480360381019061033691906114eb565b61081f565b6040516103489190611546565b60405180910390f35b61036b600480360381019061036691906114eb565b61090a565b6040516103789190611546565b60405180910390f35b610389610939565b604051610396919061167e565b60405180910390f35b6103b960048036038101906103b49190611699565b61095f565b6040516103c69190611570565b60405180910390f35b6103e960048036038101906103e49190611642565b6109e6565b005b6060600480546103fa90611708565b80601f016020809104026020016040519081016040528092919081815260200182805461042690611708565b80156104735780601f1061044857610100808354040283529160200191610473565b820191906000526020600020905b81548152906001019060200180831161045657829003601f168201915b5050505050905090565b600061049161048a610af4565b8484610afc565b6001905092915050565b6000600354905090565b600083600660149054906101000a900460ff166104c157600080fd5b6104cc858585610cc7565b9150509392505050565b60006012905090565b60006105816104ec610af4565b8484600260006104fa610af4565b73ffffffffffffffffffffffffffffffffffffffff1673ffffffffffffffffffffffffffffffffffffffff16815260200190815260200160002060008873ffffffffffffffffffffffffffffffffffffffff1673ffffffffffffffffffffffffffffffffffffffff1681526020019081526020016000205461057c9190611769565b610afc565b6001905092915050565b61059481610dbf565b50565b6000600160008373ffffffffffffffffffffffffffffffffffffffff1673ffffffffffffffffffffffffffffffffffffffff168152602001908152602001600020549050919050565b6105e8610af4565b73ffffffffffffffffffffffffffffffffffffffff16610606610751565b73ffffffffffffffffffffffffffffffffffffffff161461065c576040517f08c379a00000000000000000000000000000000000000000000000000000000081526004016106539061180b565b60405180910390fd5b6106666000610dd3565b565b6106728282610e97565b5050565b60076020528060005260406000206000915054906101000a900460ff1681565b61069e610af4565b73ffffffffffffffffffffffffffffffffffffffff166106bc610751565b73ffffffffffffffffffffffffffffffffffffffff1614610712576040517f08c379a00000000000000000000000000000000000000000000000000000000081526004016107099061180b565b60405180910390fd5b6000600660149054906101000a900460ff1615158115151461073357600080fd5b6001600660146101000a81548160ff02191690831515021790555050565b60008060009054906101000a900473ffffffffffffffffffffffffffffffffffffffff16905090565b60606005805461078990611708565b80601f01602080910402602001604051908101604052809291908181526020018280546107b590611708565b80156108025780601f106107d757610100808354040283529160200191610802565b820191906000526020600020905b8154815290600101906020018083116107e557829003601f168201915b5050505050905090565b600660149054906101000a900460ff1681565b6000806002600061082e610af4565b73ffffffffffffffffffffffffffffffffffffffff1673ffffffffffffffffffffffffffffffffffffffff16815260200190815260200160002060008573ffffffffffffffffffffffffffffffffffffffff1673ffffffffffffffffffffffffffffffffffffffff168152602001908152602001600020549050828110156108eb576040517f08c379a00000000000000000000000000000000000000000000000000000000081526004016108e29061189d565b60405180910390fd5b6108ff6108f6610af4565b85858403610afc565b600191505092915050565b600033600660149054906101000a900460ff1661092657600080fd5b6109308484610f12565b91505092915050565b600660009054906101000a900473ffffffffffffffffffffffffffffffffffffffff1681565b6000600260008473ffffffffffffffffffffffffffffffffffffffff1673ffffffffffffffffffffffffffffffffffffffff16815260200190815260200160002060008373ffffffffffffffffffffffffffffffffffffffff1673ffffffffffffffffffffffffffffffffffffffff16815260200190815260200160002054905092915050565b6109ee610af4565b73ffffffffffffffffffffffffffffffffffffffff16610a0c610751565b73ffffffffffffffffffffffffffffffffffffffff1614610a62576040517f08c379a0000000000000000000000000000000000000000000000000000000008152600401610a599061180b565b60405180910390fd5b600073ffffffffffffffffffffffffffffffffffffffff168173ffffffffffffffffffffffffffffffffffffffff161415610ad2576040517f08c379a0000000000000000000000000000000000000000000000000000000008152600401610ac99061192f565b60405180910390fd5b610adb81610dd3565b50565b60008183610aec919061194f565b905092915050565b600033905090565b600073ffffffffffffffffffffffffffffffffffffffff168373ffffffffffffffffffffffffffffffffffffffff161415610b6c576040517f08c379a0000000000000000000000000000000000000000000000000000000008152600401610b6390611a1b565b60405180910390fd5b600073ffffffffffffffffffffffffffffffffffffffff168273ffffffffffffffffffffffffffffffffffffffff161415610bdc576040517f08c379a0000000000000000000000000000000000000000000000000000000008152600401610bd390611aad565b60405180910390fd5b80600260008573ffffffffffffffffffffffffffffffffffffffff1673ffffffffffffffffffffffffffffffffffffffff16815260200190815260200160002060008473ffffffffffffffffffffffffffffffffffffffff1673ffffffffffffffffffffffffffffffffffffffff168152602001908152602001600020819055508173ffffffffffffffffffffffffffffffffffffffff168373ffffffffffffffffffffffffffffffffffffffff167f8c5be1e5ebec7d5bd14f71427d1e84f3dd0314c0f7b2291e5b200ac8c7c3b92583604051610cba9190611570565b60405180910390a3505050565b6000610cd4848484610f30565b6000600260008673ffffffffffffffffffffffffffffffffffffffff1673ffffffffffffffffffffffffffffffffffffffff1681526020019081526020016000206000610d1f610af4565b73ffffffffffffffffffffffffffffffffffffffff1673ffffffffffffffffffffffffffffffffffffffff16815260200190815260200160002054905082811015610d9f576040517f08c379a0000000000000000000000000000000000000000000000000000000008152600401610d9690611b3f565b60405180910390fd5b610db385610dab610af4565b858403610afc565b60019150509392505050565b610dd0610dca610af4565b826111b4565b50565b60008060009054906101000a900473ffffffffffffffffffffffffffffffffffffffff169050816000806101000a81548173ffffffffffffffffffffffffffffffffffffffff021916908373ffffffffffffffffffffffffffffffffffffffff1602179055508173ffffffffffffffffffffffffffffffffffffffff168173ffffffffffffffffffffffffffffffffffffffff167f8be0079c531659141344cd1fd0a4f28419497f9722a3daafe3b4186f6b6457e060405160405180910390a35050565b6000610eaa83610ea5610af4565b61095f565b905081811015610eef576040517f08c379a0000000000000000000000000000000000000000000000000000000008152600401610ee690611bd1565b60405180910390fd5b610f0383610efb610af4565b848403610afc565b610f0d83836111b4565b505050565b6000610f26610f1f610af4565b8484610f30565b6001905092915050565b600073ffffffffffffffffffffffffffffffffffffffff168373ffffffffffffffffffffffffffffffffffffffff161415610fa0576040517f08c379a0000000000000000000000000000000000000000000000000000000008152600401610f9790611c63565b60405180910390fd5b600073ffffffffffffffffffffffffffffffffffffffff168273ffffffffffffffffffffffffffffffffffffffff161415611010576040517f08c379a000000000000000000000000000000000000000000000000000000000815260040161100790611cf5565b60405180910390fd5b61101b83838361138d565b6000600160008573ffffffffffffffffffffffffffffffffffffffff1673ffffffffffffffffffffffffffffffffffffffff168152602001908152602001600020549050818110156110a2576040517f08c379a000000000000000000000000000000000000000000000000000000000815260040161109990611d87565b60405180910390fd5b818103600160008673ffffffffffffffffffffffffffffffffffffffff1673ffffffffffffffffffffffffffffffffffffffff1681526020019081526020016000208190555081600160008573ffffffffffffffffffffffffffffffffffffffff1673ffffffffffffffffffffffffffffffffffffffff16815260200190815260200160002060008282546111379190611769565b925050819055508273ffffffffffffffffffffffffffffffffffffffff168473ffffffffffffffffffffffffffffffffffffffff167fddf252ad1be2c89b69c2b068fc378daa952ba7f163c4a11628f55a4df523b3ef8460405161119b9190611570565b60405180910390a36111ae848484611392565b50505050565b600073ffffffffffffffffffffffffffffffffffffffff168273ffffffffffffffffffffffffffffffffffffffff161415611224576040517f08c379a000000000000000000000000000000000000000000000000000000000815260040161121b90611e19565b60405180910390fd5b6112308260008361138d565b6000600160008473ffffffffffffffffffffffffffffffffffffffff1673ffffffffffffffffffffffffffffffffffffffff168152602001908152602001600020549050818110156112b7576040517f08c379a00000000000000000000000000000000000000000000000000000000081526004016112ae90611eab565b60405180910390fd5b818103600160008573ffffffffffffffffffffffffffffffffffffffff1673ffffffffffffffffffffffffffffffffffffffff16815260200190815260200160002081905550816003600082825461130f9190611ecb565b92505081905550600073ffffffffffffffffffffffffffffffffffffffff168373ffffffffffffffffffffffffffffffffffffffff167fddf252ad1be2c89b69c2b068fc378daa952ba7f163c4a11628f55a4df523b3ef846040516113749190611570565b60405180910390a361138883600084611392565b505050565b505050565b505050565b600081519050919050565b600082825260208201905092915050565b60005b838110156113d15780820151818401526020810190506113b6565b838111156113e0576000848401525b50505050565b6000601f19601f8301169050919050565b600061140282611397565b61140c81856113a2565b935061141c8185602086016113b3565b611425816113e6565b840191505092915050565b6000602082019050818103600083015261144a81846113f7565b905092915050565b600080fd5b600073ffffffffffffffffffffffffffffffffffffffff82169050919050565b600061148282611457565b9050919050565b61149281611477565b811461149d57600080fd5b50565b6000813590506114af81611489565b92915050565b6000819050919050565b6114c8816114b5565b81146114d357600080fd5b50565b6000813590506114e5816114bf565b92915050565b6000806040838503121561150257611501611452565b5b6000611510858286016114a0565b9250506020611521858286016114d6565b9150509250929050565b60008115159050919050565b6115408161152b565b82525050565b600060208201905061155b6000830184611537565b92915050565b61156a816114b5565b82525050565b60006020820190506115856000830184611561565b92915050565b6000806000606084860312156115a4576115a3611452565b5b60006115b2868287016114a0565b93505060206115c3868287016114a0565b92505060406115d4868287016114d6565b9150509250925092565b600060ff82169050919050565b6115f4816115de565b82525050565b600060208201905061160f60008301846115eb565b92915050565b60006020828403121561162b5761162a611452565b5b6000611639848285016114d6565b91505092915050565b60006020828403121561165857611657611452565b5b6000611666848285016114a0565b91505092915050565b61167881611477565b82525050565b6000602082019050611693600083018461166f565b92915050565b600080604083850312156116b0576116af611452565b5b60006116be858286016114a0565b92505060206116cf858286016114a0565b9150509250929050565b7f4e487b7100000000000000000000000000000000000000000000000000000000600052602260045260246000fd5b6000600282049050600182168061172057607f821691505b60208210811415611734576117336116d9565b5b50919050565b7f4e487b7100000000000000000000000000000000000000000000000000000000600052601160045260246000fd5b6000611774826114b5565b915061177f836114b5565b9250827fffffffffffffffffffffffffffffffffffffffffffffffffffffffffffffffff038211156117b4576117b361173a565b5b828201905092915050565b7f4f776e61626c653a2063616c6c6572206973206e6f7420746865206f776e6572600082015250565b60006117f56020836113a2565b9150611800826117bf565b602082019050919050565b60006020820190508181036000830152611824816117e8565b9050919050565b7f45524332303a2064656372656173656420616c6c6f77616e63652062656c6f7760008201527f207a65726f000000000000000000000000000000000000000000000000000000602082015250565b60006118876025836113a2565b91506118928261182b565b604082019050919050565b600060208201905081810360008301526118b68161187a565b9050919050565b7f4f776e61626c653a206e6577206f776e657220697320746865207a65726f206160008201527f6464726573730000000000000000000000000000000000000000000000000000602082015250565b60006119196026836113a2565b9150611924826118bd565b604082019050919050565b600060208201905081810360008301526119488161190c565b9050919050565b600061195a826114b5565b9150611965836114b5565b9250817fffffffffffffffffffffffffffffffffffffffffffffffffffffffffffffffff048311821515161561199e5761199d61173a565b5b828202905092915050565b7f45524332303a20617070726f76652066726f6d20746865207a65726f2061646460008201527f7265737300000000000000000000000000000000000000000000000000000000602082015250565b6000611a056024836113a2565b9150611a10826119a9565b604082019050919050565b60006020820190508181036000830152611a34816119f8565b9050919050565b7f45524332303a20617070726f766520746f20746865207a65726f20616464726560008201527f7373000000000000000000000000000000000000000000000000000000000000602082015250565b6000611a976022836113a2565b9150611aa282611a3b565b604082019050919050565b60006020820190508181036000830152611ac681611a8a565b9050919050565b7f45524332303a207472616e7366657220616d6f756e742065786365656473206160008201527f6c6c6f77616e6365000000000000000000000000000000000000000000000000602082015250565b6000611b296028836113a2565b9150611b3482611acd565b604082019050919050565b60006020820190508181036000830152611b5881611b1c565b9050919050565b7f45524332303a206275726e20616d6f756e74206578636565647320616c6c6f7760008201527f616e636500000000000000000000000000000000000000000000000000000000602082015250565b6000611bbb6024836113a2565b9150611bc682611b5f565b604082019050919050565b60006020820190508181036000830152611bea81611bae565b9050919050565b7f45524332303a207472616e736665722066726f6d20746865207a65726f20616460008201527f6472657373000000000000000000000000000000000000000000000000000000602082015250565b6000611c4d6025836113a2565b9150611c5882611bf1565b604082019050919050565b60006020820190508181036000830152611c7c81611c40565b9050919050565b7f45524332303a207472616e7366657220746f20746865207a65726f206164647260008201527f6573730000000000000000000000000000000000000000000000000000000000602082015250565b6000611cdf6023836113a2565b9150611cea82611c83565b604082019050919050565b60006020820190508181036000830152611d0e81611cd2565b9050919050565b7f45524332303a207472616e7366657220616d6f756e742065786365656473206260008201527f616c616e63650000000000000000000000000000000000000000000000000000602082015250565b6000611d716026836113a2565b9150611d7c82611d15565b604082019050919050565b60006020820190508181036000830152611da081611d64565b9050919050565b7f45524332303a206275726e2066726f6d20746865207a65726f2061646472657360008201527f7300000000000000000000000000000000000000000000000000000000000000602082015250565b6000611e036021836113a2565b9150611e0e82611da7565b604082019050919050565b60006020820190508181036000830152611e3281611df6565b9050919050565b7f45524332303a206275726e20616d6f756e7420657863656564732062616c616e60008201527f6365000000000000000000000000000000000000000000000000000000000000602082015250565b6000611e956022836113a2565b9150611ea082611e39565b604082019050919050565b60006020820190508181036000830152611ec481611e88565b9050919050565b6000611ed6826114b5565b9150611ee1836114b5565b925082821015611ef457611ef361173a565b5b82820390509291505056fea26469706673582212200de8d09279c8cad2785141bdea64775db347cd7f91ccecffd5cbdbf7be7c29a464736f6c634300080a0033",
  "immutableReferences": {},
  "source": "pragma solidity >=0.4.21 <0.9.0;\n\nimport \"openzeppelin-solidity/contracts/access/Ownable.sol\";\nimport \"openzeppelin-solidity/contracts/token/ERC20/extensions/ERC20Burnable.sol\";\nimport \"openzeppelin-solidity/contracts/utils/math/SafeMath.sol\";\n\ncontract Candidate is Ownable, ERC20Burnable {\n    using SafeMath for uint256;\n\n    address public releaseAgent;\n\n    bool public released = false;\n\n    mapping (address => bool) public transferAgents;\n\n\n    constructor(\n        string memory name,\n        string memory symbol,\n        uint8 decimals,\n        uint256 amount\n    )\n        ERC20(name, symbol)\n        Ownable()\n        public\n    {\n        require(amount > 0, \"amount has to be greater than 0\");\n        uint256 totalSupply = amount.mul(10 ** uint256(decimals));\n        releaseAgent = msg.sender;\n        _mint(msg.sender, totalSupply);\n    }\n\n    modifier canTransfer(address _sender) {\n        require(released);\n        _;\n    }\n\n    modifier inReleaseState(bool releaseState) {\n        require(releaseState == released);\n        _;\n    }\n\n\n    function release() public onlyOwner inReleaseState(false)  {\n        released = true;\n    }\n\n\n    function transfer(address _to, uint _value) public override canTransfer(msg.sender) returns (bool success) {\n        return super.transfer(_to, _value);\n    }\n\n    function transferFrom(address _from, address _to, uint _value) public override canTransfer(_from) returns (bool success) {\n        return super.transferFrom(_from, _to, _value);\n    }\n\n    function burn(uint256 _value) public override{\n        return super.burn(_value);\n    }\n\n    function burnFrom(address _from, uint256 _value) public  override{\n        return super.burnFrom(_from, _value);\n    }\n}",
  "sourcePath": "/Users/iuragaitur/Blockchain/HigherProtocol/back/server/higher-protocol/blockchain/contracts/Candidate.sol",
  "compiler": {
    "name": "solc",
    "version": "0.8.10+commit.fc410830.Emscripten.clang"
  },
  "schemaVersion": "3.4.3",
  "updatedAt": "2021-12-06T20:46:47.481Z",
  "networkType": "ethereum",
  "devdoc": {
    "kind": "dev",
    "methods": {
      "allowance(address,address)": {
        "details": "See {IERC20-allowance}."
      },
      "approve(address,uint256)": {
        "details": "See {IERC20-approve}. Requirements: - `spender` cannot be the zero address."
      },
      "balanceOf(address)": {
        "details": "See {IERC20-balanceOf}."
      },
      "decimals()": {
        "details": "Returns the number of decimals used to get its user representation. For example, if `decimals` equals `2`, a balance of `505` tokens should be displayed to a user as `5.05` (`505 / 10 ** 2`). Tokens usually opt for a value of 18, imitating the relationship between Ether and Wei. This is the value {ERC20} uses, unless this function is overridden; NOTE: This information is only used for _display_ purposes: it in no way affects any of the arithmetic of the contract, including {IERC20-balanceOf} and {IERC20-transfer}."
      },
      "decreaseAllowance(address,uint256)": {
        "details": "Atomically decreases the allowance granted to `spender` by the caller. This is an alternative to {approve} that can be used as a mitigation for problems described in {IERC20-approve}. Emits an {Approval} event indicating the updated allowance. Requirements: - `spender` cannot be the zero address. - `spender` must have allowance for the caller of at least `subtractedValue`."
      },
      "increaseAllowance(address,uint256)": {
        "details": "Atomically increases the allowance granted to `spender` by the caller. This is an alternative to {approve} that can be used as a mitigation for problems described in {IERC20-approve}. Emits an {Approval} event indicating the updated allowance. Requirements: - `spender` cannot be the zero address."
      },
      "name()": {
        "details": "Returns the name of the token."
      },
      "owner()": {
        "details": "Returns the address of the current owner."
      },
      "renounceOwnership()": {
        "details": "Leaves the contract without owner. It will not be possible to call `onlyOwner` functions anymore. Can only be called by the current owner. NOTE: Renouncing ownership will leave the contract without an owner, thereby removing any functionality that is only available to the owner."
      },
      "symbol()": {
        "details": "Returns the symbol of the token, usually a shorter version of the name."
      },
      "totalSupply()": {
        "details": "See {IERC20-totalSupply}."
      },
      "transferOwnership(address)": {
        "details": "Transfers ownership of the contract to a new account (`newOwner`). Can only be called by the current owner."
      }
    },
    "version": 1
  },
  "userdoc": {
    "kind": "user",
    "methods": {},
    "version": 1
  }
}