{
  "contractName": "JobContracts",
  "abi": [
    {
      "inputs": [
        {
          "internalType": "uint256",
          "name": "id",
          "type": "uint256"
        },
        {
          "internalType": "string",
          "name": "conditions",
          "type": "string"
        },
        {
          "internalType": "uint256",
          "name": "reward",
          "type": "uint256"
        },
        {
          "internalType": "uint256",
          "name": "minimPoints",
          "type": "uint256"
        },
        {
          "internalType": "string",
          "name": "taskTitle",
          "type": "string"
        },
        {
          "internalType": "string",
          "name": "taskDetails",
          "type": "string"
        }
      ],
      "name": "createContract",
      "outputs": [
        {
          "internalType": "uint256",
          "name": "",
          "type": "uint256"
        }
      ],
      "stateMutability": "nonpayable",
      "type": "function"
    },
    {
      "inputs": [
        {
          "internalType": "uint256",
          "name": "id",
          "type": "uint256"
        }
      ],
      "name": "getContractDetails",
      "outputs": [
        {
          "internalType": "uint256",
          "name": "job_id",
          "type": "uint256"
        },
        {
          "internalType": "string",
          "name": "conditions",
          "type": "string"
        },
        {
          "internalType": "uint256",
          "name": "reward",
          "type": "uint256"
        },
        {
          "internalType": "uint256",
          "name": "minimPoints",
          "type": "uint256"
        },
        {
          "internalType": "string",
          "name": "taskTitle",
          "type": "string"
        },
        {
          "internalType": "string",
          "name": "taskDetails",
          "type": "string"
        },
        {
          "internalType": "uint256",
          "name": "createdAt",
          "type": "uint256"
        },
        {
          "internalType": "bool",
          "name": "released",
          "type": "bool"
        }
      ],
      "stateMutability": "view",
      "type": "function",
      "constant": true
    },
    {
      "inputs": [
        {
          "internalType": "uint256",
          "name": "id",
          "type": "uint256"
        }
      ],
      "name": "releaseContract",
      "outputs": [
        {
          "internalType": "string",
          "name": "",
          "type": "string"
        }
      ],
      "stateMutability": "nonpayable",
      "type": "function"
    }
  ],
  "bytecode": "0x608060405234801561001057600080fd5b50610a15806100206000396000f3fe608060405234801561001057600080fd5b50600436106100415760003560e01c80634d6d6a9c14610046578063bc7740271461007d578063c87570fe146100ad575b600080fd5b610060600480360381019061005b91906105a8565b6100dd565b604051610074989796959493929190610698565b60405180910390f35b61009760048036038101906100929190610860565b610349565b6040516100a49190610941565b60405180910390f35b6100c760048036038101906100c291906105a8565b61044e565b6040516100d4919061095c565b60405180910390f35b6000606060008060608060008060008060008b81526020019081526020016000206040518061010001604052908160008201548152602001600182018054610124906109ad565b80601f0160208091040260200160405190810160405280929190818152602001828054610150906109ad565b801561019d5780601f106101725761010080835404028352916020019161019d565b820191906000526020600020905b81548152906001019060200180831161018057829003601f168201915b5050505050815260200160028201548152602001600382015481526020016004820180546101ca906109ad565b80601f01602080910402602001604051908101604052809291908181526020018280546101f6906109ad565b80156102435780601f1061021857610100808354040283529160200191610243565b820191906000526020600020905b81548152906001019060200180831161022657829003601f168201915b5050505050815260200160058201805461025c906109ad565b80601f0160208091040260200160405190810160405280929190818152602001828054610288906109ad565b80156102d55780601f106102aa576101008083540402835291602001916102d5565b820191906000526020600020905b8154815290600101906020018083116102b857829003601f168201915b50505050508152602001600682015481526020016007820160009054906101000a900460ff1615151515815250509050806000015181602001518260400151836060015184608001518560a001518660c001518760e001519850985098509850985098509850985050919395975091939597565b600080604051806101000160405280898152602001888152602001878152602001868152602001858152602001848152602001428152602001600015158152509050806000808a81526020019081526020016000206000820151816000015560208201518160010190805190602001906103c49291906104bb565b50604082015181600201556060820151816003015560808201518160040190805190602001906103f59291906104bb565b5060a08201518160050190805190602001906104129291906104bb565b5060c0820151816006015560e08201518160070160006101000a81548160ff021916908315150217905550905050879150509695505050505050565b6060600160008084815260200190815260200160002060070160006101000a81548160ff0219169083151502179055506040518060400160405280600581526020017f31323334350000000000000000000000000000000000000000000000000000008152509050919050565b8280546104c7906109ad565b90600052602060002090601f0160209004810192826104e95760008555610530565b82601f1061050257805160ff1916838001178555610530565b82800160010185558215610530579182015b8281111561052f578251825591602001919060010190610514565b5b50905061053d9190610541565b5090565b5b8082111561055a576000816000905550600101610542565b5090565b6000604051905090565b600080fd5b600080fd5b6000819050919050565b61058581610572565b811461059057600080fd5b50565b6000813590506105a28161057c565b92915050565b6000602082840312156105be576105bd610568565b5b60006105cc84828501610593565b91505092915050565b6105de81610572565b82525050565b600081519050919050565b600082825260208201905092915050565b60005b8381101561061e578082015181840152602081019050610603565b8381111561062d576000848401525b50505050565b6000601f19601f8301169050919050565b600061064f826105e4565b61065981856105ef565b9350610669818560208601610600565b61067281610633565b840191505092915050565b60008115159050919050565b6106928161067d565b82525050565b6000610100820190506106ae600083018b6105d5565b81810360208301526106c0818a610644565b90506106cf60408301896105d5565b6106dc60608301886105d5565b81810360808301526106ee8187610644565b905081810360a08301526107028186610644565b905061071160c08301856105d5565b61071e60e0830184610689565b9998505050505050505050565b600080fd5b600080fd5b7f4e487b7100000000000000000000000000000000000000000000000000000000600052604160045260246000fd5b61076d82610633565b810181811067ffffffffffffffff8211171561078c5761078b610735565b5b80604052505050565b600061079f61055e565b90506107ab8282610764565b919050565b600067ffffffffffffffff8211156107cb576107ca610735565b5b6107d482610633565b9050602081019050919050565b82818337600083830152505050565b60006108036107fe846107b0565b610795565b90508281526020810184848401111561081f5761081e610730565b5b61082a8482856107e1565b509392505050565b600082601f8301126108475761084661072b565b5b81356108578482602086016107f0565b91505092915050565b60008060008060008060c0878903121561087d5761087c610568565b5b600061088b89828a01610593565b965050602087013567ffffffffffffffff8111156108ac576108ab61056d565b5b6108b889828a01610832565b95505060406108c989828a01610593565b94505060606108da89828a01610593565b935050608087013567ffffffffffffffff8111156108fb576108fa61056d565b5b61090789828a01610832565b92505060a087013567ffffffffffffffff8111156109285761092761056d565b5b61093489828a01610832565b9150509295509295509295565b600060208201905061095660008301846105d5565b92915050565b600060208201905081810360008301526109768184610644565b905092915050565b7f4e487b7100000000000000000000000000000000000000000000000000000000600052602260045260246000fd5b600060028204905060018216806109c557607f821691505b602082108114156109d9576109d861097e565b5b5091905056fea26469706673582212200f0d2c8a4b772f46cce336ebf5372ce1f1cd07ab5d71eb61ba19ee9e4b2c6ee264736f6c634300080a0033",
  "immutableReferences": {},
  "source": "// SPDX-License-Identifier: MIT\npragma solidity >=0.4.21 <0.9.0;\n\ncontract JobContracts {\n\n    struct JobContract {\n        uint id;\n        string conditions;\n        uint reward;\n        uint minimPoints;\n        string taskTitle;\n        string taskDetails;\n        uint256 createdAt;\n\n        bool released;\n    }\n\n    mapping(uint => JobContract) jobContracts;\n\n    function createContract(uint id, string memory conditions, uint reward, uint minimPoints, \n                            string memory taskTitle, string memory taskDetails) public returns(uint) {\n        \n        JobContract memory newJob = JobContract(id, conditions, reward, minimPoints, taskTitle, taskDetails, block.timestamp, false);\n        jobContracts[id] = newJob;\n\n        return id;\n    }\n\n    function getContractDetails(uint id) public view returns(uint job_id, string memory conditions, uint reward, uint minimPoints, \n                            string memory taskTitle, string memory taskDetails, uint256 createdAt, bool released) {\n        JobContract memory job = jobContracts[id];\n        return (job.id, job.conditions, job.reward, job.minimPoints, job.taskTitle, job.taskDetails, job.createdAt, job.released);\n    }\n\n    function releaseContract(uint id) public returns(string memory) {\n        jobContracts[id].released = true;\n        //Send transfer\n        return \"12345\";\n    }\n\n}",
  "sourcePath": "/Users/iuragaitur/Blockchain/HigherProtocol/back/server/higher-protocol/blockchain/contracts/JobContracts.sol",
  "compiler": {
    "name": "solc",
    "version": "0.8.10+commit.fc410830.Emscripten.clang"
  },
  "schemaVersion": "3.4.3",
  "updatedAt": "2021-12-06T20:46:48.659Z",
  "networkType": "ethereum",
  "devdoc": {
    "kind": "dev",
    "methods": {},
    "version": 1
  },
  "userdoc": {
    "kind": "user",
    "methods": {},
    "version": 1
  }
}